:100000000C94E6010C943D170C9416170C94210ED9
:100010000C94BE0D0C944D0D0C94BC170C941F1831
:100020000C940E020C9437190C940E020C940E02D0
:100030000C940E020C9461190C940E020C940E0296
:100040000C94961C0C940E020C948A170C94641752
:100050000C940E020C940E020C940E020C940E02E0
:100060000C940E020C940E02202D207265616479AE
:1000700000002E0206030D04E905CA070C0B060D4D
:10008000210E650F6A10C811931203153417031857
:100090001819161B431E2F1F65207823E9242A25D3
:1000A0001F26113E033100434320696E6974000A24
:1000B00000496E69742053746F726167653A20005D
:1000C0000A0B0C122021000102030405060700019F
:1000D000020304050001020304050A002020536501
:1000E0007269616C3A200049443A200041736B53B5
:1000F000696E2B2B2056332E312E3820284D6179F6
:1001000020323720323031392030393A33303A34E6
:1001100031290000206C6F6E6772656C65617365D4
:100120006400206C6F6E6770726573736564002085
:100130006465626F756E63650020707265737365C8
:1001400064002072656C656173656400424F4F54B2
:100150004C4F414445520069676E6F7265200048FC
:100160004156452044415441002D3E20003000308E
:10017000300030303000303030300030303030300F
:1001800000303030303030003030303030303000FF
:100190002000202D20002000200020002000200032
:1001A00020002529004C202800496E68616C7420CD
:1001B000202020202020202020202020202020203F
:1001C00020203A200046C3BC6C6C696E68616C7478
:1001D00020284C293A200046C3BC6C6C696E6861CB
:1001E0006C74202825293A20004D65737377657259
:1001F00074202856293A200042656861656C746550
:1002000072766F6C756D656E2028676573616D74AD
:10021000293A2000496E76616C69642063617365D8
:1002200044657369676E004F666673657420696E16
:10023000204C697465726E202020203A2000536F94
:100240006E64656E77657274202856293A20002AFC
:1002500053656E6465696E74657276616C6C3A2084
:10026000000A000A000A000A000A002D3E200000D1
:100270007761697441636B3A20003C2D20000A00CD
:100280000A002A53454E534F525F545950453A2065
:1002900020202020002A44495354414E43455F4FBB
:1002A00046465345543A20002A434153455F44454E
:1002B0005349474E3A2020202020002A43415345ED
:1002C0005F4C454E4754483A2020202020002A43C6
:1002D0004153455F57494454483A2020202020206C
:1002E000002A434153455F484947483A202020208F
:1002F00020202000436F6E666967206368616E6727
:100300006564204C69737431005E5F66675A6A6B7E
:10031000010203FAB50148424C45565F564F303151
:1003200000FAB51053010152455345540000000036
:1003300000240027002A0000000000250028002BD0
:100340000000000000230026002900040404040427
:100350000404040202020202020303030303030172
:100360000204081020408001020408102001020449
:10037000081020000000080002010000030407002C
:10038000000000000000000000000000000000026B
:100390001405050000000002010A01000000000031
:1003A0000000000000000000000000000000000647
:1003B0000305010101010A060101010501050A0207
:1003C0000602020000000000D422E92311241FBE0F
:1003D000CFEFD8E0DEBFCDBF12E0A0E0B1E0E0E4B7
:1003E000F1E502C005900D92A631B107D9F724E0DE
:1003F000A6E1B2E001C01D92A830B207E1F711E01A
:10040000C5EED1E004C02197FE010E945127C43EF1
:10041000D107C9F70E94E01C0C9493280C940000AB
:10042000FC0111860895813011F08FEF089580E06E
:100430000895882311F08FEF089581E008958FEFDC
:1004400008958FEF08950F931F93CF938C01C62FBC
:10045000643091F038F4623061F0633099F489E3EC
:1004600091E012C0653059F0663061F484E191E0AA
:100470000BC082E491E008C08FE291E005C082E207
:1004800091E002C083E191E00E94F10FC770F80192
:100490008185887FC82BC187CF911F910F910895C7
:1004A0001F93CF93DF93EC01FB012985922F977067
:1004B000943061F028F4923039F0933079F030C004
:1004C000953061F0963061F511E01BC023FD0CC042
:1004D0004B855C854550510913E01EC023FD20C0AB
:1004E0004B855C8515E018C045E050E012E060E007
:1004F00070E04D835E836F837887BE01CF010E94D9
:100500005718E881F9810680F781E02D612FCE012F
:10051000DF91CF911F9109944115510541F7F1CF1A
:10052000DF91CF911F9108952F923F924F925F924A
:100530006F927F928F929F92AF92BF92CF92DF92F3
:10054000EF92FF920F931F93CF93DF93CDB7DEB758
:10055000E4970FB6F894DEBF0FBECDBF7C018B01D0
:1005600019AA18AA1FA6BE01615D7F4FDC01D796AC
:100570008D919C91D8970E94E3191801B7E02B0E3A
:10058000311CBE01615D7F4FC1010E94D308C82E9E
:10059000882339F1F701C280D3805601F4E2AF0E0F
:1005A000B11CC5010E9444138AE090E0A0E0B0E0D5
:1005B000F60181A792A7A3A7B4A781E085A7B501FB
:1005C0008AEF92E00E94571889E691E00E94E50FB9
:1005D000C8010E94EE0CD80112968C9186FD39C09C
:1005E0004AC0F8018081898381818A83B280BB827D
:1005F000D380DC8284818D8385818E8386818F8305
:10060000878188878085898781858A8782858B878E
:10061000A384AC868EE13C96DE011D9601900D927E
:100620008A95E1F762EF72E0CE0108960E94D30846
:10063000882339F0F1E0DF1204C02AE0A21609F4A1
:10064000A9CFB2FE3FC480EC8D0D823008F03AC4D1
:10065000A1CFB8016C5F7F4FC70107960E94D308F6
:10066000882349F0D7011A969C91F801818198134B
:1006700002C0C12C2EC4F8018481D70117968C9337
:100680001797858118968C931897868119968C9365
:10069000199781811A968C939381B28483859130C6
:1006A000E9F48A3009F0ABC0D701D7966D917C91FF
:1006B000D8976D5F7F4F4AE050E0CE0101960E94CF
:1006C0004D244AE050E0BE016F5F7F4FC8010C9699
:1006D0000E947D28892B09F477C195C09131C1F51D
:1006E000F4E0BF1619F02AECB21229C08AE0D80152
:1006F0008C9382E013968C93139712961C92129708
:100700001A961C92A8014C5F5F4FB801C7010E9466
:10071000BF10BAECBB120FC08CE491E00E94F10F45
:100720009CE088E10FB6F894A895809360000FBE16
:1007300090936000FFCFC7010E947C1A61C188239B
:1007400009F45EC1F70191AD981708F459C16FC360
:10075000923139F48FE591E00E94F10FC12CD12C38
:10076000EFC09054923008F04EC044244394512C72
:10077000C12CD12C92E0792ED701D9968C91D997A2
:100780008415C0F1DC968D909C90DD97F4018385F3
:1007900081FD2EC0D8011A968C911A978F731496EA
:1007A0009C9114979BA715969C9115979CA71696BC
:1007B0009C919DA78EA75401B9E0AB0EB11C612C92
:1007C000462DB501CE0101960E947A14BE016F5FDD
:1007D0007F4FCE018B960E94C60B811105C063949A
:1007E000E2E06E1629F0ECCF539464017724739401
:1007F0004394C2CFF1E0F51508F46BC0A3C081307B
:1008000039F4B11069C0C12CD12C82E0782E9AC085
:10081000823009F4F8C0833009F4FEC0843009F056
:1008200092C1D80150962C91A801445F5F4F6B2D67
:10083000C7010E94661B29833A834B835C836D83C7
:100840007E838F83E981FA81FCABEBABEF2B09F45C
:1008500077C1D80111968C91119714969C91149799
:100860009BA715969C9115979CA716969C919DA762
:100870002701BBE04B0E511C9AE1F701938790E1F1
:10088000968790E2958792E0958B84873701F6E111
:100890006F0E711C6301A12CB12C1AAA8B8190E000
:1008A000A816B9060CF423C13601D3011C92119687
:1008B0001C928AA9880F845FF701838785858F7DC5
:1008C0008587AE01455D5F4FB201C7010E94BF1031
:1008D000712CC12CD12C36C0F70181AD8B1508F4D9
:1008E00092CFC4ACD5ACC8010E94D00BF8013C96A5
:1008F0004F019601275F3F4F5901813009F0DAC15E
:10090000B401C5010E94241BC5010E94F51A782E6E
:10091000FFEF8F1709F479CF682FC6010D960E945B
:10092000D41944E050E0BC01C4010E946624472D64
:10093000B501CE0101960E94CE14C6010E94F713A4
:1009400077247394D80112968C9185FF2EC0BE0136
:10095000615D7F4FC1010E94D308882331F191E08E
:1009600079129EC2A8014C5F5F4FC114D10409F4F3
:100970008AC2D7011296ED91FC91139783A19EE054
:10098000F801908392E0938312827286D6011C96BE
:100990009C919387148615868687B801C7010E94AB
:1009A000BF10F60183858E7F8387D70112968D91C4
:1009B0009C91139742E350E060E070E048960E94FB
:1009C000020CCC24C39485C2F7018281938161E03B
:1009D00070E002960E94C91AD70112968D919C91DF
:1009E000139740ED57E060E070E048960E94020CDB
:1009F000F8014081B8016C5F7F4FC7010E943E1A29
:100A0000C12CD12C3EC2BB2009F4FDCEF70181AD33
:100A10008B1508F4F8CEADC1BB2091F3F70181AD81
:100A20008B1570F3F70164AC75ACD80111968C91FD
:100A3000119714962C9114972BA715962C91159716
:100A40002CA716962C912DA75701BBE0AB0EB11C1D
:100A50002AE1238720E1268720E22587958B84875A
:100A60004701E6E18E0E911C6401512C412CF9E006
:100A70006F0E711C442DB301CE0101960E947A14B1
:100A8000CE0101960E94C4088823D1F084E0FE01C3
:100A90003196D60101900D928A95E1F7F4E0CF0EE0
:100AA000D11C539424E052120BC0AE01455D5F4F40
:100AB000B501C7010E94BF106401512C882321F0A9
:100AC000439432E04312D6CF84E0D6011D928A953A
:100AD000E9F7852D880F880F825FF7018387858569
:100AE0008F7D8587AE01455D5F4FB501ADC0EC815F
:100AF000FD818A2D0995D6018C934601B2E08B0EBB
:100B0000911C8BA99CA98A0D9B1D0E942C1AF60191
:100B10008183FAA9FF5FFAABF83059F4AE01455D65
:100B20005F4FB201C7010E94BF10882339F0430113
:100B30001AAA2FEFA21AB20A6401B0CE1AAAB5CE31
:100B400032E0732EC6CE8E3069F5D701DC96CD909B
:100B5000DC90DD97F80131811296ED91FC911397AD
:100B600093A1D6011C962C91F701838780E186879B
:100B700086E0858B3487268B178A108E918F82E0D2
:100B80008587A8014C5F5F4FB701655F7F4FC70145
:100B90000E94BF10D6011B968C911B978E7F1B96CF
:100BA0008C932ECF8530E1F4F701B6AED801509684
:100BB0002C91A801445F5F4F6B2DC7010E94661BFB
:100BC000F70127AFE05CFF4F3083319640833196C9
:100BD0005083319660833196708331968083BECD89
:100BE0008630B1F5F701FF9620813181D701DA9681
:100BF0008D919C91DB972817390791F412968D916E
:100C00009C91139760E070E002960E94C91AD70188
:100C1000ED91FC910480F581E02DC701099505C097
:100C2000F70184AD95AD0E94F7138FEFD701DE96E3
:100C30008C938AE0F801808382E08383828312862A
:100C4000A8014C5F5F4FB801C7010E94BF10D8CE0A
:100C5000883081F4D701DE968C918B117FCD4701CE
:100C6000BFE38B0E911CF40180819181892B09F0E7
:100C7000ACC074CD893009F0C6CDD80111968C91E5
:100C800094E1F701938790E196871586158A84870A
:100C9000168A67A970AD6D5F7F4F4AE050E0C701CB
:100CA00046960E944D24A8014C5F5F4FB701655FD7
:100CB0007F4FCACFD80150968C9150971C969C912B
:100CC0001C9799831D969C911D979A831E969C91C3
:100CD0009B838C83B401C5010E94241BBE016F5FFE
:100CE0007F4FC5010E94241BC5010E94F51A582E92
:100CF000BFEF8B1709F489CD3601EDE06E0E711C44
:100D0000682FC3010E94D41944E050E0BC01C40123
:100D10000E946624C5010E94F51A482EFFEF8F1726
:100D200019F1682FC3010E94D41944E050E0BC01BE
:100D3000CE0101960E946624D8011F968C9180FFF7
:100D40000BC0452DB501CE018B960E94CE14442DCB
:100D5000B501CE018B96EFCD442DB501CE018B961A
:100D60000E94CE14452DF4CFB401C5010E94241B6E
:100D70004CCDC4ACD5AC4601B9E08B0E911CB8018A
:100D8000645F7F4FC4010E94241BB82EC8010E94DB
:100D9000D00B8230B9F4D80150968C9150971C96A4
:100DA0009C911C9799831D969C911D979A831E96E2
:100DB0009C919B838C83BE016F5F7F4FC4010E9417
:100DC000241BB822B110B9CD20CDD8018C918B3025
:100DD00060F125EF522E580E5801FCE0AF0EB11C09
:100DE0006501370124E4620E711C8C2D8A1985156A
:100DF00008F0B4CCD60111964C90D301ED91FC9142
:100E0000D6018C9109958F3F61F0F4016081718169
:100E1000680F711D498241E050E0CE0101960E94A9
:100E20006624F2E0CF0ED11CE0CF512CD5CFF701D4
:100E3000C4ACD5ACF2E0BF1204C0D6011B968C91B5
:100E40000BC0FB1560F433E0B31609F479CD80E8EC
:100E5000B81217C0F601838581FFD7CC12C0B1103C
:100E600008C0D6011B968C911B978D7F1B968C9387
:100E700067CD21E0B21205C0F601838582608387C9
:100E80005FCD712C5FCD8AE0D8018C9382E0139600
:100E90008C93139712961C9212971A961C920DC05F
:100EA000B2E07B1282CD8AE0F801808373821282E5
:100EB00080E88287A8014C5F5F4FB801C7010E949C
:100EC000BF1073CD87E591E00E94E50FC8010E9435
:100ED000EE0C8C2DE4960FB6F894DEBF0FBECDBF9E
:100EE000DF91CF911F910F91FF90EF90DF90CF9006
:100EF000BF90AF909F908F907F906F905F904F903A
:100F00003F902F900895EF92FF920F931F93CF93EE
:100F1000DC0119960D911C911A97F80182850E94A7
:100F2000021CD8011996CC911997C3FBEE24E0F866
:100F3000F12C9C013327E216F306E1F180FBC3F9A3
:100F40001996CC93C770C33029F0C53019F0C13061
:100F5000D9F408C0F801818583FF16C0C33041F180
:100F6000C6E001C0C4E0C8010E94441385E090E0DF
:100F7000A0E0B0E0F80185839683A783B087B8012D
:100F80008AEF92E00E945718D80119968C91199710
:100F900087708C1779F0ED91FC910680F781E02D38
:100FA0006C2FC801CF911F910F91FF90EF90099482
:100FB000C2E0D9CFCF911F910F91FF90EF9008958C
:100FC000EF92FF920F931F93CF93DF9300D01F9266
:100FD000CDB7DEB78C01E62EFC0181858770F82E37
:100FE000C8010E942302F2E0EF1227C0F801008D31
:100FF000118DF801F680F394F68264817581CE013B
:1010000001960E94BF0F4F2DBE016F5F7F4FC80139
:101010000E943E1AF8018281938161E070E002969D
:101020000E94C91AF8018281938140ED57E060E087
:1010300070E048960E94020C14C0F5E0EF1211C057
:10104000F801808D918DF5E0FF1203C00E947C1A9B
:1010500008C0FC018281938167E070E002960E94E3
:10106000C91A0F900F900F90DF91CF911F910F91A0
:10107000FF90EF90089508950C94EF270C94EF27BC
:101080000C94EF270F931F93CF938C0140E060E205
:101090000E94A40FC82F40E061E2C8010E94A40F83
:1010A0002C2F30E0322F2227A901480F511DCA01F1
:1010B000CF911F910F910895CF93DF93EC018FE4AF
:1010C00092E00E94E50FCE01CA960E944208DF918D
:1010D000CF910C94E70F24E631E0FC0131832083AB
:1010E0000C94B20ECF93DF93EC010E946B08CE01FB
:1010F000DF91CF910C94EF2708950F931F93CF9317
:101100008C0161E00E94E113C82F62E0C8010E94D7
:10111000E1132C2F30E0322F2227A901480F511D57
:10112000CA01CF911F910F910895E0ECF0E090E09B
:101130002491821731F09F5F31969630C9F78FEF77
:101140000895892F0895862728E0BC017695679534
:10115000AC014170552780FF02C041E050EACA014E
:1011600086279727215089F708950895FC0110825A
:1011700011821282138216821582148211861086C1
:101180001782128613860895FC018081811109C09F
:101190008181811106C081E09281911103C080E0BC
:1011A000089581E00895DC01FB019C9180819813F2
:1011B0000BC011969C9111978181981305C081E015
:1011C00012962C919281291380E008952F923F92DC
:1011D0004F925F926F927F928F929F92AF92BF9247
:1011E000CF92DF92EF92FF920F931F93CF93DF93F3
:1011F000CDB7DEB763970FB6F894DEBF0FBECDBF95
:101200003C01FC01E05CFF4F8081882341F0D30169
:101210001B968C911B9781601B968C931082F30117
:10122000858596859A838983CE0101960E94670FF2
:101230009B878A871C01412C512CD3011D968D91CF
:101240009C911E979A838983CE0101960E944F0F2D
:101250008C01A0E0B0E08E879F87A88BB98BD3016B
:101260001D968D919C911E979A838983CE0101963C
:101270000E94370F9B8B8A8BF301858596859A8315
:1012800089836AE5CE0101960E94E1138987D30123
:101290001D968D919C911E979A838983CE0101960C
:1012A0000E947D089D878C87F301858596859A83AA
:1012B000898363E0CE0101960E94E1138823D9F06F
:1012C000813081F50E946714BC01990F880B990B3E
:1012D0000E94F6252DE038E643E55BE30E94AB264D
:1012E0006B017C018EE392E00E94E50FC701B6011D
:1012F0000E94F70F1AC00E946714BC01990F880B57
:10130000990B0E94F62523E333E343E55BE30E9458
:10131000AB2620E030E048EC52E40E9453256B01FC
:101320007C0103C0C12CD12C7601EC85FD85D30155
:10133000DF96FC93EE93DE9787E292E00E94E50F42
:10134000D301DE968D919C91DF970E94E70FB985BE
:10135000B130E9F118F1B23009F061C02A853B855E
:10136000D8010E94D2249B01AC01AA89BB890E94AA
:101370009D2420E432E44FE050E00E94B024CA01F2
:10138000B901EC85FD856E1B7F0B810991090E94D7
:10139000F42520E030E048EC52E43CC06E857F85C7
:1013A0008889998996958795779567950E94F42500
:1013B0009B01AC010E94AB262BED3FE049E450E4D9
:1013C0000E94AB264B015C01C201B10117C0C201F2
:1013D000B10196958795779567950E94F4259B01B5
:1013E000AC010E94AB262BED3FE049E450E40E94A3
:1013F000AB264B015C01B80180E090E00E94F4252F
:101400009B01AC01C501B4010E94AB2620E034E28F
:1014100044E759E40E9453254B015C010BC084E171
:1014200092E00E94F10FF9856F2F70E080E090E06C
:101430000E94AD1088EF91E00E94E50FC501B40154
:101440000E94F70F24E731ED45E352E4C701B601EE
:101450000E94AB260E94C525D301D9966C9370E0FB
:1014600080E090E00E94F625A50194010E94AB2641
:1014700020E030E040E251E40E94AB260E94C52506
:10148000F30162AF73AF84AF95AF89EE91E00E9434
:10149000E50FC701B6010E94F70F87ED91E00E94AA
:1014A000E50FD301D9968C910E94B41085EC91E0A0
:1014B0000E94E50FF30162AD73AD84AD95AD0E945E
:1014C000AD1089EA91E00E94E50FD301DA966D91A3
:1014D0007D918D919C91DD974AE00E94D31285EA1F
:1014E00091E00E94E50FF30161AD70E080E090E0D3
:1014F0004AE00E94D31282EA91E00E94F10F8FEA43
:1015000091E00E94330F8EE792E00E94E50FD30135
:101510001996ED91FC911A97848195810E94420859
:10152000009711F484E190E0BC0180E090E00E941B
:10153000F4252EEA37E441E65FE30E94AB2620E083
:1015400030E048EC52E40E94AB260E94C525F3012E
:1015500065837683878390870184F285E02DD301AC
:10156000DA963C91DA97DB964C91DB97DC965C91AE
:10157000DC97DD960C91DD97D9961C9126812F5F23
:101580002683822F64E10E941D27913011F480E2AE
:1015900001C084E09FE0F301978793E5928B818BF4
:1015A000118F208B128E038F548F458F368F6301DE
:1015B000FFE0CF0ED11CD30119960D911C911A9703
:1015C000412CE12CF12C5301B9E0AB0EB11C4301CD
:1015D000E3E18E0E911C4E2DB501CE0105960E94C1
:1015E0007A14CE0105960E94C408882309F496C097
:1015F000512C452DB501CE0101960E947A14BE01F1
:101600006F5F7F4FCE0105960E94D308811106C0FF
:101610005394F2E05F12EDCF4FEF01C0452D50E043
:101620004E155F050CF47AC01B821A821982BE0126
:101630006F5F7F4FD801D7968D919C91D8970E946C
:10164000E319BE016F5F7F4FCE0105960E94D3085C
:10165000882309F445C0B401F80187A990AD0E9420
:10166000E319D30153968C91539756968C935697C2
:1016700054968C91549757968C93579755968C9176
:10168000559758968C9362EF72E0C4010E94D3087C
:10169000882329F0F30181898F7D8460818BD301B8
:1016A00051968C91519785FF11C08F7D51968C93E7
:1016B000D801ED91FC910680F781E02DB601C801BB
:1016C0000995F30181898062818B28C0D801ED9151
:1016D000FC910680F781E02DB601C80109951EC076
:1016E000AE014B5F5F4FB501CE0101960E9492148F
:1016F00089819A810E942C1AF301918980FF03C08D
:101700009061918B02C09F7E918BAE014B5F5F4FCA
:10171000B601C8010E94BF1044244394BFEFEB1AE6
:10172000FB0AE2E0EE16F10409F055CF411010C0BB
:10173000D80114966D917C911597CE0101960E9467
:10174000BF0FAE014F5F5F4FB601C8010E94BF10CF
:10175000B3018AEF92E00E94571863960FB6F8948F
:10176000DEBF0FBECDBFDF91CF911F910F91FF90D4
:10177000EF90DF90CF90BF90AF909F908F907F9031
:101780006F905F904F903F902F900895FC013381B0
:10179000FB012381321302C00C94D30880E008952A
:1017A000CF93DF9300D000D0CDB7DEB7FC018089A6
:1017B0009485998395859A8396859B838C838823CA
:1017C00059F0BF01645F7F4FCE0101960E94C60BA6
:1017D000811102C082E001C081E00F900F900F9054
:1017E0000F90DF91CF910895FC019FB7F89471831A
:1017F00060839FBF08952FB7F894FC018081918189
:101800002FBF08958F929F92AF92BF92CF92DF9297
:10181000EF92FF92CF93DF93EC016A017B018AEF95
:1018200092E00E94FB0B0097E1F00297812C912C33
:1018300054010097B1F0FC014581568167817085A4
:10184000840E951EA61EB71EC817D90769F002960A
:101850000E94FB0B009719F480E090E0EACF02971A
:10186000E8CF812C912C54018C149D04AE04BF044C
:10187000C0F481E08987CE010E944413CD82DE82CC
:10188000EF82F886BE018AEF92E0DF91CF91FF9060
:10189000EF90DF90CF90BF90AF909F908F900C947F
:1018A0005718DF91CF91FF90EF90DF90CF90BF90CE
:1018B000AF909F908F900895EF92FF920F931F9398
:1018C000CF93DF93EC01EFB6F8940E94FB0B8C01F1
:1018D000892B61F0FFB6F894CE010E94FB0B0E94A9
:1018E000FB0BBC01CE010E94F40BFFBEEFBEC80192
:1018F000DF91CF911F910F91FF90EF900895CF92BC
:10190000DF92EF92FF926B017C0180E1C816D10457
:10191000E104F10418F488E891E036C08FEFC816AE
:10192000D104E104F10409F018F481E891E02CC03D
:10193000C11480E1D806E104F10418F48BE791E0CA
:1019400023C0C114D10481E0E806F10418F486E74D
:1019500091E01AC0C114D10480E1E806F10418F442
:1019600082E791E011C0C114D104E10481E0F806DE
:1019700018F48FE691E008C0C114D104E10480E1BD
:10198000F80620F48DE691E00E94141340E1C701AF
:10199000B601FF90EF90DF90CF900C94D312CF93CD
:1019A000C82F803128F460E38CE492E00E945E1638
:1019B0006C2F70E080E090E040E1CF910C94D31266
:1019C000CF93DF93EC0188810E94CF0C89810E9424
:1019D000CF0C8A81DF91CF910C94CF0CEF92FF92C4
:1019E0000F931F93CF93DF93EC0188810E94CF0C5C
:1019F00080EA91E00E94E50F89810E94CF0C8EE978
:101A000091E00E94E50F8A810E94CF0C8CE991E061
:101A10000E94E50F8B810E94CF0C8AE991E00E9421
:101A2000E50FCE0104960E94E00C88E991E00E9447
:101A3000E50FCE0107960E94E00C86E991E00E9436
:101A4000E50F088109502A967E0110E0C7018C1B22
:101A50009D0B8017910754F4F70181917F010E943B
:101A6000CF0C80E991E00E94E50FF0CF82E991E090
:101A70000E94E50F2FB7F8946091FB037091FC036F
:101A80008091FD039091FE032FBFDF91CF911F91B5
:101A90000F91FF90EF900C94AD101F920F920FB624
:101AA0000F9211242F933F934F935F936F937F93E4
:101AB0008F939F93AF93BF93CF93EF93FF9329B1EE
:101AC000C09118028091460290914302322F3095C6
:101AD00093238223892B90916D00C227C923C823A9
:101AE00020931802CC23C1F1C0FF05C0E091190278
:101AF000F0911A020995C1FF05C0E0911B02F09117
:101B00001C020995C2FF05C0E0911D02F0911E0262
:101B10000995C3FF05C0E0911F02F09120020995CD
:101B2000C4FF05C0E0912102F09122020995C5FF92
:101B300005C0E0912302F09124020995C6FF05C07B
:101B4000E0912502F09126020995C7FF05C0E091BA
:101B50002702F09128020995FF91EF91CF91BF9153
:101B6000AF919F918F917F916F915F914F913F9135
:101B70002F910F900FBE0F901F9018951F920F92EC
:101B80000FB60F9211242F933F934F935F936F9350
:101B90007F938F939F93AF93BF93CF93EF93FF93D5
:101BA00026B1C09129028091470290914402322FC0
:101BB000309593238223892B90916C00C227C923EF
:101BC000C82320932902CC2351F1C0FF05C0E09126
:101BD0002A02F0912B020995C1FF05C0E0912C0269
:101BE000F0912D020995C2FF05C0E0912E02F091FF
:101BF0002F020995C3FF05C0E0913002F091310238
:101C00000995C4FF05C0E0913202F09133020995B5
:101C1000C5FF05C0E0913402F09135020995FF91AE
:101C2000EF91CF91BF91AF919F918F917F916F91E4
:101C30005F914F913F912F910F900FBE0F901F908A
:101C400018951F920F920FB60F9211242F933F9366
:101C50004F935F936F937F938F939F93AF93BF93B4
:101C6000CF93EF93FF9323B1C09136028091480246
:101C700090914502322F309593238223892B9091A6
:101C80006B00C227C923C82320933602CC2351F10D
:101C9000C0FF05C0E0913702F09138020995C1FFFD
:101CA00005C0E0913902F0913A020995C2FF05C0E2
:101CB000E0913B02F0913C020995C3FF05C0E09121
:101CC0003D02F0913E020995C4FF05C0E0913F023C
:101CD000F09140020995C5FF05C0E0914102F091E5
:101CE00042020995FF91EF91CF91BF91AF919F91E2
:101CF0008F917F916F915F914F913F912F910F90B5
:101D00000FBE0F901F901895E9E0F3E090E024914A
:101D1000821731F09F5F31969A30C9F78FEF08959F
:101D2000892F08958A3030F4E82FF0E0E75FFC4F08
:101D3000849108958FEF0895863030F4E82FF0E015
:101D4000E054FF4F849108958FEF0895E0911602BB
:101D5000F09117028585811102C081E08487089582
:101D600080E008950F931F93CF93DF9328E531E030
:101D7000FC01318320838C010A5B1F4F81F0EC0151
:101D8000C957DF4FC017D10751F0C154D109E881BD
:101D9000F9810280F381E02DCE010995F3CFDF9127
:101DA000CF911F910F9108950C94EF270C94EF277A
:101DB0000C94EF270C94EF27CF93DF93EC010E9454
:101DC000B20ECE01DF91CF910C94EF270C94EF2748
:101DD0008BE093E00E9444136BE073E08AEF92E0A3
:101DE0000C945718FC018489882311F061E001C02C
:101DF00060E083890C942B1CEF92FF921F93CF938A
:101E0000DF93EC017B01898911E0180F198BFE012A
:101E1000E80FF11D238530E0A4E6B0E00E94D22453
:101E20002AE030E040E050E00E94B0242D833E8361
:101E30004F83588710FF0AC08C89882311F060E017
:101E400001C061E08B890E942B1C03C0CE010E945F
:101E5000F20EBE01C701DF91CF911F91FF90EF906D
:101E60000C94571808950C94C112089508950F9377
:101E70001F93CF938C016AE60E94E113C82F6BE693
:101E8000C8010E94E1132C2F30E0322F2227A90134
:101E9000480F511DCA01CF911F910F9108950F93C3
:101EA0001F93CF938C0166E60E94E113C82F67E66B
:101EB000C8010E94E1132C2F30E0322F2227A90104
:101EC000480F511DCA01CF911F910F9108950F9393
:101ED0001F93CF938C016EE50E94E113C82F6FE52D
:101EE000C8010E94E1132C2F30E0322F2227A901D4
:101EF000480F511DCA01CF911F910F910895CF93A3
:101F0000DF931F92CDB7DEB720E030E0F901E75F45
:101F1000FC4FE4916E1739F02F5F3F4F2A303105A7
:101F2000A9F780E00DC0FC0160817181620F731F11
:101F3000498341E050E0CE0101960E94662481E091
:101F40000F90DF91CF9108950F931F93CF938C0142
:101F5000862FC42F0E9495088F3F61F0F8012081E1
:101F60003181A901480F511DCA01CF911F910F91D5
:101F70000C942C1A8C2FCF911F910F910895EF92F2
:101F8000FF920F931F93CF93DF93EC018B0140E0FF
:101F90006CE0C8010E94A40FF82E40E06BE0C8017D
:101FA0000E94A40FE82E40E06AE0C8010E94A40F3E
:101FB0008883E982FA82CE01DF91CF911F910F9140
:101FC000FF90EF900895089508950C941413BC01A8
:101FD00080E090E04AE00E94D31289E692E00C94FF
:101FE000E50F0E94E50F87E692E00C94E50F8F92D3
:101FF0009F92AF92BF92CF92DF92EF92FF92CF93D8
:102000006B017C019B01AC010E941827882319F009
:102010008FEC91E01AC046015701E894B7F82FEF12
:102020003FEF4FE75FE7C501B4010E941827811118
:102030000FC02FEF3FEF4FE75FE7C501B4010E94EC
:102040004E2518162CF483ED91E00E94C11278C041
:102050002FEF3FEF4FE75FE4C701B6010E94A626CE
:1020600018161CF487ED91E0F0CF2FEF3FEF4FE70C
:102070005FECC701B6010E944E2587FDF3CF20E03B
:1020800030E0A901C701B6010E944E2587FF09C0B3
:102090006DE28CE492E00E945E16F7FAF094F7F895
:1020A000F094CAE060E070E080E09FE320E030E080
:1020B00040E251E40E945325C150C1F7A7019601A7
:1020C0000E94E2246B017C010E94C5254B015C014A
:1020D0000E94F4259B01AC01C701B6010E94E124D6
:1020E0006B017C014AE0C501B4010E94D3126EE28B
:1020F0008CE492E00E945E16CBE0C15009F120E032
:1021000030E040E251E4C701B6010E94AB264B012A
:102110005C010E94C5256B01E12CF12C4AE0C7014E
:10212000B6010E94D312C701B6010E94F4259B019B
:10213000AC01C501B4010E94E1246B017C01DDCF3B
:1021400085E692E0CF91FF90EF90DF90CF90BF9027
:10215000AF909F908F900C94E50F4AE00E94D312AD
:1021600083E692E00C94E50F682F70E080E090E049
:102170004AE00E94D31281E692E00C94E50F2F9280
:102180003F924F925F926F927F928F929F92AF9207
:10219000BF92CF92DF92EF92FF920F931F93CF9354
:1021A000DF93CDB7DEB7AD970FB6F894DEBF0FBEA5
:1021B000CDBF6C018B01FA018081DB0117968C93F6
:1021C0001797818118968C931897828119968C9312
:1021D00062EF72E0CA010E94D308882329F0F80157
:1021E00082818F7D84608283B8016C5F7F4FD601CE
:1021F000D7968D919C91D8970E94E319F80182811E
:102200008068828346E064E1D60114968D919C91AA
:1022100015970E94A40F682E811102C06624639452
:10222000F601E480F58085E00E9495088F3F89F0F3
:10223000D7012D913C91F901E80FF11DCF010E94CA
:102240002C1A582E52945694569433E0532269F027
:1022500002C055245394D60112968D919C911397E8
:1022600062E070E002960E94C91A712CF801319662
:10227000FDA7ECA71801F7E02F0E311C711056C115
:10228000662009F458C1D80112968C91129780717A
:10229000A82EF601E280F3804701F2E38F0E911C35
:1022A0004C9150E06CA57DA5C4010E948A28D801FC
:1022B0002C91F70121AB82A9F6E78F27D701D2969F
:1022C0008C93D297D3969C9161E030E021503109F4
:1022D000462F50E0F401E40FF51F4217530734F482
:1022E00084524081842780836F5FF2CF808198275A
:1022F0009083F70141A8D7019D968C91882339F0EE
:10230000EFECF7E03197F1F700C00000F4CF8AE07E
:1023100090E0A0E0B0E0F70181A792A7A3A7B4A73F
:1023200021E025A7B7016C5D7F4F8AEF92E00E9404
:102330005718D701D0968C91882321F00E94B319A9
:10234000F70110AAE1E0D7019F96EC9386E30E9483
:102350009B198BE30E949B1928ECB22E85E30E9407
:102360009B1987EC90E00197F1F700C00000BA9448
:10237000B11013C086E30E949B198BE30E949B1946
:102380008DE30E949B1984E30E949B1960EC85E316
:102390000E94BE198D30B9F74EC060EC85E30E94F3
:1023A000BE198331D9F6AFE1BEE41197F1F700C051
:1023B0000000AA2049F0BFE7EBE8F8E0B150E040A8
:1023C000F040E1F700C000000E9497190E949119A7
:1023D0008FE30E948719842D0E9487190E948D190E
:1023E0000E9497190E9491198FE70E9487198BA666
:1023F00054018A2D2BA5821B841530F4D5018D91B3
:102400005D010E948719F5CF0E948D1998ECB92EB5
:1024100060EC85E30E94BE198D3019F4BB24B3949F
:102420000AC0E7ECF0E03197F1F700C00000BA9481
:10243000B110EECFF3CFD7019F961C92BB2DB17098
:10244000FB2E8AE792E00E94E50FC8010E94EE0C85
:102450006A94B11002C07F2C11CFF801828185FFF0
:10246000FACFC1010E94C4088823A9F3CE010196C6
:102470000E94B6088CE3F82ED60112968D919C919D
:102480001397FC0126A521110AC08FE19EE4019754
:10249000F1F700C00000FA94F110EECF30C0BE0199
:1024A0006F5F7F4F82960E942D15882371F38BE614
:1024B00092E00E94E50FCE0101960E94EE0CD80139
:1024C00011969C918A819813E0CFBE016B5F7F4F7C
:1024D000C1010E94D3088823C1F28C81823041F46B
:1024E0008B85782E7094771C7724771C87FD612C60
:1024F000F801828181FD0FC08B8180FD0CC080E7D7
:1025000092E00E94E50F872D0E94CF0C8FE692E0AB
:102510000E94F10FB3CEF6018281938142E350E035
:1025200060E070E048960E94020CE9CF552079F0F7
:1025300063E070E004C0552051F064E070E0D60123
:1025400012968D919C91139702960E94C91A872D1D
:10255000AD960FB6F894DEBF0FBECDBFDF91CF9121
:102560001F910F91FF90EF90DF90CF90BF90AF90B1
:102570009F908F907F906F905F904F903F902F90A3
:102580000895009769F0FC0101900020E9F7319768
:10259000AF01481B590BBC018CE492E00C94C815A8
:1025A00080E090E008958F929F92AF92BF920F9338
:1025B0001F93CF93DF93CDB7DEB7A1970FB6F894F3
:1025C000DEBF0FBECDBF19A2423008F44AE08E0133
:1025D0000F5D1F4F842E912CA12CB12CA5019401CD
:1025E0000E94B024E62FB901CA0101501109EA3056
:1025F00014F4E05D01C0E95CD801EC93232B242B9B
:10260000252B61F7C8010E94C112A1960FB6F8945C
:10261000DEBF0FBECDBFDF91CF911F910F91BF9055
:10262000AF909F908F9008950F931F93CF93DF9358
:102630008C01C0E0D0E0F801EC0FFD1F649166232F
:1026400041F08CE492E00E945E16892B11F02196F5
:10265000F2CFCE01DF91CF911F910F9108958CEFB2
:1026600092E00E945C0C009769F0029759F0DC013F
:10267000ED91FC910190F081E02D6AEF72E00995F7
:1026800081E0089580E00895AF92BF92CF92DF92EB
:10269000FF920F931F93CF93DF935C01FFB6F894E3
:1026A0008AEF92E00E94FB0B0097A9F1EC012297C0
:1026B0000AEF12E0209779F1CE0102966C01CA155B
:1026C000DB05F1F4C8010E945C0CC6010E94FB0B03
:1026D000009709F44BC0FC01329709F447C04581CB
:1026E0005681678170858D819E81AF81B885840F09
:1026F000951FA61FB71F85839683A783B08736C013
:102700008C010E94FB0B009719F4C0E0D0E0D2CFFF
:10271000EC012297CFCF92E0A90EB11CDFB6F8945E
:10272000CFB6F8948CEF92E00E94FB0BEC012CEFFB
:1027300032E0209751F400E010E0CFBE0115110502
:10274000A1F0C8010E945C0C10C0AC16BD0611F4CB
:10275000890102C000E010E0CE010E94FB0B9E0147
:102760000115110551F7EC01E4CFDFBEFFBEDF918B
:10277000CF911F910F91FF90DF90CF90BF90AF90BE
:1027800008951F93CF93DF931F92CDB7DEB7162F17
:102790000E9495088F3F79F0609152037091530326
:1027A000680F711D198341E050E0CE0101960E942F
:1027B000662481E001C080E00F90DF91CF911F91EE
:1027C000089520E030E0F901E75FFC4FE4916E17D7
:1027D00039F02F5F3F4F2A303105A9F780E0089587
:1027E000FC0180819181820F931F0C942C1A0F930E
:1027F0001F93CF93DF9300D0CDB7DEB78C0184EF6A
:1028000092E00E94F10F81EE92E00E94E50FF80144
:10281000858596859A838983CE0101960E94670FEC
:102820000E94E70F8EEC92E00E94E50FF80185858B
:1028300096859A838983CE0101960E944F0F0E944C
:10284000E70F8BEB92E00E94E50FF80185859685F6
:102850009A838983CE0101960E94370F0E94E70F69
:1028600088EA92E00E94E50FF801858596859A83B3
:1028700089836AE5CE0101960E94E1130E94B4109B
:1028800085E992E00E94E50FF801858596859A8397
:102890008983CE0101960E947D080E94E70F82E89D
:1028A00092E00E94E50FF801858596859A838983D9
:1028B00063E0CE0101960E94E11390E00E94E70FD1
:1028C0000F900F90DF91CF911F910F91089580E4A9
:1028D00080937C0080917A00806480937A0080915C
:1028E0007A0086FDFCCF809178002091790090E0FD
:1028F000922B0895CF93DF93EC01CB011A821982BA
:1029000018821B82642F04960E94D419009731F01C
:1029100044E050E0BC01CE010E945624CE01DF917C
:10292000CF910895AF92BF92CF92DF92EF92FF9234
:102930001F93CF93DF9300D000D0CDB7DEB77C01DB
:102940006B015A0110E0412FB601CE0101960E94A1
:102950007A14B501CE0101960E94C60B882339F086
:10296000612FC60104960E94D419059605C01F5F09
:10297000123049F780E090E0F70191838083C7012E
:102980000F900F900F900F90DF91CF911F91FF90BC
:10299000EF90DF90CF90BF90AF900895CF93DF93EB
:1029A000EC01CB01423018F080E090E005C0642FCC
:1029B00004960E94D419049699838883CE01DF91EE
:1029C000CF9108950F931F93CF93DF93D82FC62FE6
:1029D000142F0E9497190E9491198D2F0E94871918
:1029E0008C2F0E9487190E948D1960E88D2F0E94FC
:1029F000BE19082FC81761F1112369F04FEF410F7D
:102A00006C2F8D2F0E94E2148FEC97E00197F1F765
:102A100000C000001DC08BED91E00E94330F8D2F90
:102A20000E94CF0C85EE91E00E94330F8C2F0E9404
:102A3000CF0C81EF91E00E94330F802F0E94CF0CCA
:102A400080E892E0DF91CF911F910F910C94E50FF8
:102A5000DF91CF911F910F910895AF92BF92CF92C6
:102A6000DF92EF92FF920F931F93CF93DF93EC01CE
:102A70006B011C861E867C0180E1E80EF11C60EC77
:102A80008BE30E94BE1918160CF03EC060E88FE37D
:102A90000E94BE19182F8A3280F50E9497190E9451
:102AA00091198FEF0E9487190E2D57018A2D801BD7
:102AB000811738F480E00E948719F50181935F0146
:102AC000F5CF0E948D1960E88FE30E94BE1987FD43
:102AD0008095898389818695885B898360E88FE307
:102AE0000E94BE1987FD11C089EF91E00E94330F4B
:102AF0008EE792E00E94E50F07C084E092E00E941A
:102B0000330F812F0E94B41010E08AE30E949B19BA
:102B10008BE791E00197F1F700C000000E94AA192D
:102B200084E30E949B19112319F11F87888996E776
:102B30009827988B91E0412F50E0BA0161507109BC
:102B4000292F30E0F701E20FF31F261737073CF477
:102B500020818452822780839F5F822FF1CF9081D2
:102B6000898989278083B701C60101960E948A2836
:102B7000F60110831F868081DF91CF911F910F9105
:102B8000FF90EF90DF90CF90BF90AF9008950895A1
:102B9000CF92DF92EF92FF920F931F93CF93DF9329
:102BA0006C017A018B01C0E0D0E0CE15DF0581F029
:102BB000D8016D918D01D601ED91FC910190F081CC
:102BC000E02DC6010995892B11F02196EECF7E01EB
:102BD000C701DF91CF911F910F91FF90EF90DF9090
:102BE000CF900895089580E090E00895FC01538D02
:102BF000448D252F30E0842F90E0821B930B5417D7
:102C000010F0CF96089501970895FC01918D828D63
:102C1000981761F0828DDF01A80FB11D5D968C9130
:102C2000928D9F5F9F73928F90E008958FEF9FEF3B
:102C30000895FC01918D828D981731F0828DE80FF7
:102C4000F11D858D90E008958FEF9FEF0895FC01B1
:102C5000918D228D892F90E0805C9F4F821B91097E
:102C60008F73992708958CE492E00E94271621E043
:102C7000892B09F420E0822F0895FC01848DDF0167
:102C8000A80FB11DA35ABF4F2C91848D90E00196DF
:102C90008F739927848FA689B7892C93A089B189CE
:102CA0008C9180648C93938D848D981306C00288D8
:102CB000F389E02D80818F7D80830895EF92FF92CC
:102CC0000F931F93CF93DF93EC0181E0888F9B8D4F
:102CD0008C8D981305C0E889F989808185FD24C011
:102CE000F62E0B8D10E00F5F1F4F0F731127E02E94
:102CF0008C8DE8120CC00FB607FCFACFE889F98971
:102D0000808185FFF5CFCE010E943D16F1CF8B8DDE
:102D1000FE01E80FF11DE35AFF4FF0820B8FEA89A5
:102D2000FB898081806207C0EE89FF896083E88922
:102D3000F98980818064808381E090E0DF91CF9188
:102D40001F910F91FF90EF900895CF93DF93EC01C7
:102D5000888D8823C9F0EA89FB89808185FD05C0BB
:102D6000A889B9898C9186FD0FC00FB607FCF5CFF5
:102D7000808185FFF2CFA889B9898C9185FFEDCF3D
:102D8000CE010E943D16E7CFDF91CF91089580E0FC
:102D900090E0892B29F00E94331681110C940000D9
:102DA00008950E947828FF920F931F93CF93DF938B
:102DB000EC018B01FFB6F8940E94FB0BBC01C8012B
:102DC0000E94F40BB801CE010E94F40BFFBEDF910C
:102DD000CF911F910F91FF9008950C9495081F9328
:102DE000CF93DF93EC011FB7F894998989859817E1
:102DF00020F0198A9A85911108C0CE010E94FC0E1C
:102E00001FBFDF91CF911F9108958A898F5F8A8BB1
:102E1000891798F3CE010E94F20E48E050E067E86F
:102E200073E0CE0109960E944D24EACF1F920F92C3
:102E30000FB60F9211242F933F934F935F936F938D
:102E40007F938F939F93AF93BF93EF93FF93E09103
:102E50000201F09103010995FF91EF91BF91AF91AC
:102E60009F918F917F916F915F914F913F912F91A2
:102E70000F900FBE0F901F9018951F920F920FB6D4
:102E80000F9211242F933F934F935F936F937F93F0
:102E90008F939F93AF93BF93EF93FF93E0910001C4
:102EA000F09101010995FF91EF91BF91AF919F9131
:102EB0008F917F916F915F914F913F912F910F90E3
:102EC0000FBE0F901F9018951F920F920FB60F9282
:102ED00011242F933F934F935F936F937F938F931F
:102EE0009F93AF93BF93EF93FF938CE492E00E9484
:102EF0003D16FF91EF91BF91AF919F918F917F917F
:102F00006F915F914F913F912F910F900FBE0F9056
:102F10001F9018951F920F920FB60F9211242F93A6
:102F20008F939F93EF93FF93E0915C02F0915D028A
:102F30008081E0916202F091630282FD12C0908173
:102F4000809165028F5F8F7320916602821751F026
:102F5000E0916502F0E0E45BFD4F958F80936502A0
:102F600001C08081FF91EF919F918F912F910F90E0
:102F70000FBE0F901F9018951F920F920FB60F92D1
:102F800011248F930FB6F894A89580916000886102
:102F900080936000109260000FBE8F910F900FBE63
:102FA0000F901F9018954115510529F4EAE7F0E0BC
:102FB00080818F7780836A307105A9F063FD02C03C
:102FC00088E001C088E26770682B88E10FB6F8944A
:102FD000A895809360000FBE60936000E0E6F0E08B
:102FE000808180648083232BA1F483B7817F8460F8
:102FF00083BFF89483B7816083BF85B7806685BF40
:103000008F7D85BF7894889583B78E7F83BF7894B2
:103010000EC083B7817F846083BFF89483B78160DB
:1030200083BF7894889583B78E7F83BF7894452B30
:1030300029F4EAE7F0E080818068808308951F9298
:103040000F920FB60F9211242F933F934F935F93DC
:103050006F937F938F939F93AF93BF93CF93DF93A0
:10306000EF93FF93C9EED2E060E089810E942B1CB0
:103070001092B1006A817B818C819D810E94C5255F
:103080006093B30081E08E83FF91EF91DF91CF9148
:10309000BF91AF919F918F917F916F915F914F9170
:1030A0003F912F910F900FBE0F901F9018954F9248
:1030B0005F926F927F92BF92CF92DF92EF92FF92D8
:1030C0000F931F93CF93DF93FB0105811681278117
:1030D0003085012B022B032B79F18B01BFB6F894BD
:1030E000F82EE92E0E94FB0B0097C1F1EC0122970C
:1030F0002097A1F14D805E806F807884F801458132
:10310000568167817085CE01029644165506660683
:10311000770608F055C044195509660977094583B3
:10312000568367837087F82EE92E0E94FB0B009769
:10313000E9F6C0E0D0E0DCCF6E5F7F4F0296DF9112
:10314000CF911F910F91FF90EF90DF90CF90BF90A4
:103150007F906F905F904F900C94D316C0E0D0E0BA
:1031600060E070E06801F2E0CF0ED11CC6010E9461
:10317000F40BB6018F2D9E2D0E94F40B209789F041
:103180008D819E81AF81B885F80145815681678127
:103190007085841B950BA60BB70B8D839E83AF8325
:1031A000B887BFBEDF91CF911F910F91FF90EF9035
:1031B000DF90CF90BF907F906F905F904F90089579
:1031C000BC01D0CFDF92EF92FF920F931F93CF936A
:1031D000DF938C01DFB6F8947C0182E0E80EF11CED
:1031E000C8010E94FB0B0097C1F1EC012297A9F1E5
:1031F0008D819E81AF81B8850197A109B1098D8329
:103200009E83AF83B8878D819E81AF81B885892BDE
:103210008A2B8B2B11F5C8010E945C0C8C818823B2
:1032200049F0E881F9810190F081E02DB801CE01EB
:10323000099506C0BE016E5F7F4FC7010E94D3167D
:10324000C8010E94FB0B009729F4C0E0D0E0209752
:10325000D1F603C0EC012297FACFDFBEC801DF919F
:10326000CF911F910F91FF90EF90DF9008951F92E3
:103270000F920FB60F9211242F933F934F935F93AA
:103280006F937F938F939F93AF93BF93EF93FF932E
:10329000E5EFF2E084818F5F8483CF010E94E21822
:1032A000FF91EF91BF91AF919F918F917F916F911E
:1032B0005F914F913F912F910F900FBE0F901F90F4
:1032C00018951F920F920FB60F9211242F933F93D0
:1032D0004F935F936F937F938F939F93AF93BF931E
:1032E000EF93FF938AEF92E00E94E218FF91EF9133
:1032F000BF91AF919F918F917F916F915F914F910E
:103300003F912F910F900FBE0F901F9018958EBD7B
:103310000DB407FEFDCF8EB5089561E08AE00C94F0
:103320002B1C8CE00E94021C8111FBCF089560E0F1
:103330008AE00C942B1CCF93C82F0E9497190E94EF
:1033400091198C2F0E948719C82F0E948D198C2FDC
:10335000CF91089586E30E949B198DE30E949B19EB
:103360008AE30C949B190E9497190E9491190E945C
:103370008D190E94AA1984E30C949B19CF93DF93B3
:10338000D82FC62F0E9497190E9491198D2F8C2B30
:103390000E94871980E00E948719C82F0E948D190A
:1033A0008C2FDF91CF910895623050F4FC01808121
:1033B00091810A96F6E06F9F800D911D112408956A
:1033C00080E090E008950F931F93CF93DF9300D098
:1033D0001F92CDB7DEB78B0143E050E0BC01CE01B8
:1033E00001960E944D249A818B812981F8012083C6
:1033F000918382830F900F900F90DF91CF911F9157
:103400000F910895EFE6F0E0808181608083089558
:10341000EF92FF920F931F93CF93DF931F92CDB73D
:10342000DEB77B01E80EF91E8C010E151F0559F061
:10343000198241E050E0B801CE0101960E94662455
:103440000F5F1F4FF2CF81E00F90DF91CF911F915F
:103450000F91FF90EF900895CF93DF931F92CDB718
:10346000DEB7198241E050E0BC01CE0101960E9416
:10347000562489810F90DF91CF9108950F931F9368
:10348000CF93DF93EC018B018AE18B871E861D862B
:103490004C871E8A6FA978ADFB0171968491319794
:1034A000E491ED8B8AA3625F7F4F42E050E0CE0152
:1034B00046960E944D246FA978AD6D5F7F4F4AE01C
:1034C00050E0CE0148960E944D2489AD8BA36FA990
:1034D00078AD6E5E7F4F42E050E0CE0184960E9450
:1034E0004D24BE01655F7F4FA801CE01DF91CF91D2
:1034F0001F910F910C94BF10CF93DF93EC0188E1E3
:103500000E9495088F3F79F487E293E00E94F10FC3
:1035100064E070E080E090E00E94081AE0E0F0E0F3
:10352000DF91CF9109942AAD3BADA901480F511D00
:10353000CA010E942C1A80FFE7CFDF91CF91089536
:10354000833081F028F4813099F08230A1F0089521
:103550008730A9F08830B9F08430D1F480918000B0
:103560008F7D03C0809180008F77809380000895C5
:1035700084B58F7702C084B58F7D84BD0895809116
:10358000B0008F7703C08091B0008F7D8093B00032
:1035900008950F931F93CF93DF93EC018B010E944B
:1035A0004413CE010E94F20EB80183E0660F771F2C
:1035B0008A95E1F769577C4F48E050E0CE010996C3
:1035C0000E944D248985882359F0198A1A8A6AEF46
:1035D00072E0CE01DF91CF911F910F910C94FC0E00
:1035E000DF91CF911F910F9108950F931F93CF9368
:1035F000DF9300D000D0CDB7DEB78C0140E0BC0136
:10360000CE0101960E947A14CE0101960E94C40850
:10361000882371F041E0B801CE0101960E947A142E
:10362000CE0101960E94C408811104C081E003C04C
:1036300080E001C08FEF0F900F900F900F90DF91FF
:10364000CF911F910F910895AF92BF92CF92DF92C9
:10365000EF92FF921F93CF93DF9300D000D0CDB7AE
:10366000DEB77C016B0110E05C0184E0A80EB11CA8
:10367000412FB701CE0101960E947A14B601CE0106
:1036800001960E94C60B882379F01B821A82198248
:103690001C82612FC5010E94D41944E050E0BC0196
:1036A000CE0101960E9466241F5F123009F781E067
:1036B0000F900F900F900F90DF91CF911F91FF907F
:1036C000EF90DF90CF90BF90AF900895AF92BF92F0
:1036D000CF92DF92FF920F931F93CF93DF93CDB7DB
:1036E000DEB729970FB6F894DEBF0FBECDBFFC0141
:1036F00021110DC082AD93AD9A83898386E08B83BF
:103700008CE99EE09D838C838DEE96E161C06623FB
:1037100019F081AD861740F41A8219821B821D822E
:103720001C821F821E8256C004AD15AD213071F47B
:10373000F801858596859A8389838AE08B8382E95F
:103740009EE09D838C8384E89EE042C06A01233022
:10375000B1F0243009F7B801675F7F4FCE010896BA
:103760000E949214888599859A83898381E08B834E
:1037700089E192E09D838C8383E192E029C0580126
:1037800089E0A80EB11CF12C4F2DB501CE01019698
:103790000E947A14B601CE0101960E94C60B8823BE
:1037A00039F06F2DC8010D960E94D419049606C0F9
:1037B000F394F2E0FF12E8CF80E090E09A838983EF
:1037C00081E08B838FE192E09D838C8381E292E0A4
:1037D0009F838E8329813A814B815C816D817E81BB
:1037E0008F8190E029960FB6F894DEBF0FBECDBF53
:1037F000DF91CF911F910F91FF90DF90CF90BF90FD
:10380000AF900895CF93DF93282F30E0F901ED5862
:10381000FC4F8491F901E15AFC4FD491F901E55B29
:10382000FC4FC491CC2391F081110E94A01AEC2F7F
:10383000F0E0EE0FFF1FEF5BFC4FA591B491EC9110
:10384000ED2381E090E021F480E002C080E090E090
:10385000DF91CF9108951F93CF93DF93282F30E00E
:10386000F901ED58FC4F8491F901E15AFC4FD491D4
:10387000F901E55BFC4FC491CC23C1F0162F8111F7
:103880000E94A01AEC2FF0E0EE0FFF1FE95CFC4F46
:10389000A591B4919FB7F894111104C08C91D09563
:1038A000D82302C0EC91DE2BDC939FBFDF91CF9138
:1038B0001F910895CF93DF9390E0FC01E15AFC4FF4
:1038C0002491FC01E55BFC4F8491882361F190E039
:1038D000880F991FFC01E35DFC4FC591D491FC0159
:1038E000E95CFC4FA591B491611109C09FB7F894B0
:1038F0008881209582238883EC912E230BC062302F
:1039000061F49FB7F8948881322F309583238883A0
:10391000EC912E2B2C939FBF06C08FB7F894E881B3
:103920002E2B28838FBFDF91CF9108951F920F9286
:103930000FB60F9211242F933F938F939F93AF93C2
:10394000BF938091FB039091FC03A091FD03B09184
:10395000FE033091030426E0230F2D3720F4029656
:10396000A11DB11D05C029E8230F0396A11DB11D9E
:10397000209303048093FB039093FC03A093FD0327
:10398000B093FE038091FF0390910004A091010485
:10399000B09102040196A11DB11D8093FF03909385
:1039A0000004A0930104B0930204BF91AF919F91D2
:1039B0008F913F912F910F900FBE0F901F901895F0
:1039C000CF93DF93CDB7DEB72F970FB6F894DEBF56
:1039D0000FBECDBF789484B5826084BD84B581600C
:1039E00084BD85B5826085BD85B5816085BD8091CA
:1039F0006E00816080936E00109281008091810042
:103A00008260809381008091810081608093810039
:103A1000809180008160809380008091B1008460FB
:103A20008093B1008091B00081608093B00080915C
:103A30007A00846080937A0080917A00826080931B
:103A40007A0080917A008E7F80937A0080917A004C
:103A5000806880937A001092C100E0915C02F0913E
:103A60005D0282E08083E0915802F0915902108259
:103A7000E0915A02F0915B0280E18083109264022F
:103A8000E0916002F091610286E08083E0915E0245
:103A9000F0915F02808180618083E0915E02F0910D
:103AA0005F02808188608083E0915E02F0915F0216
:103AB000808180688083E0915E02F0915F02808166
:103AC0008F7D80838CEE90E00E94F10FE090520396
:103AD000F090530386E0E80EF11CE0E008E113E00B
:103AE00080915103E817F0F4BB24B394BE0EF0E0CC
:103AF000EE0FFF1FEC5AFC4FC080D180F6011287F9
:103B00000187B486F686E58660E08EE00E945A1C46
:103B1000B6018AEF92E00E945718F6E1EF0EF11C11
:103B2000EB2DDECF00915403109155038CE991E009
:103B30000E94330F60914D0370914E0380E090E03E
:103B40004AE00E94D3128CEA91E00E94330FF80100
:103B50008585968546960E94E70F60E080E090E0BC
:103B60000E94A3087C0100EC10E0F8016491C701F9
:103B70000E94A3087C010F5F1F4FF0E0063C1F0767
:103B8000A1F701E080915103801768F1C0905403C0
:103B9000D090550310E0812F0E94920E682FC7012C
:103BA0000E94A3087C011F5F1A30A9F7B601675F66
:103BB0007F4F40E0CE0101960E94CE1480E00E942B
:103BC0001F02682FC7010E94A3087C0180E00E94A9
:103BD0001902682FC7010E94A30862E00E94A3088F
:103BE0007C010F5FCFCF44E050E060E070E0CE0199
:103BF0000C960E945624C701A0E0B0E08C019D0104
:103C00002E6F3A6C09831A832B833C836C857D85E8
:103C10008E859F85061717072807390709F496C070
:103C20000E947F0C8FEA90E00E94E50F81EB90E00C
:103C30000E94E50F69817A818B819C810E947F0CB3
:103C40008FEA90E00E94E50F44E050E060E070E011
:103C5000CE0101960E94662466E070E080915203D6
:103C6000909153030E94081A66E182E10E94C113F9
:103C700060E080E20E94C113882321F064EB81E2BE
:103C80000E94C11310E080915103181708F05EC024
:103C9000E12FF0E0EE0FFF1FEC5AFC4FE080F180C7
:103CA00066E170E0F701858596850E94081AF701A4
:103CB000858596859A8389836AE070E00E94081A58
:103CC00040E06EE5CE0101960E947F0F882331F01F
:103CD00044E66FE5CE0101960E947F0F40E066E664
:103CE000CE0101960E947F0F882331F044E667E6FB
:103CF000CE0101960E947F0F40E06AE6CE01019658
:103D00000E947F0F882331F044E66BE6CE010196D6
:103D10000E947F0F40E06AE5CE0101960E947F0F6E
:103D200040E061E0CE0101960E947F0F882331F0D0
:103D300040E062E0CE0101960E947F0F40E063E028
:103D4000CE0101960E947F0F1F5F9DCF8FE993E008
:103D500090931B0380931A031B821A821982BE015F
:103D60006F5F7F4F80914F03909150030E94E31942
:103D700089819A810E94422484E08093B40361E0A7
:103D80000E945A1C81EA93E00E94F20EE89887ECA8
:103D900095E1909301018093000181EC93E0909371
:103DA00017028093160287EA90E00E94E50F60E018
:103DB00082E00E945A1C85EA90E00E94F10F61E0C7
:103DC0008AE00E945A1C61E08BE00E945A1C60E06D
:103DD0008CE00E945A1C61E08DE00E945A1C80E534
:103DE0008CBD61E08AE00E942B1C61E08DE00E94A6
:103DF0002B1C60E08BE00E942B1C0E9497190E94F4
:103E000091190E948D19F5E8FA95F1F700000E94CA
:103E100097190E94911980E30E9487190E949119B5
:103E20000E948D1901E710E0E5EAEE2EE0E0FE2E9B
:103E3000F80131966491F801849143E00E94E21404
:103E40000E5F1F4FE016F10699F780EB91E00E949C
:103E5000330F60EC81E30E94BE190E94CF0C80E812
:103E600092E00E94E50F83E30E949B198FEA93EB97
:103E70000197F1F700C0000043E060EC8EE30E9480
:103E8000E21488E690E00E94F10F86EA9EE09093AB
:103E9000010180930001809169008C7F8260809392
:103EA0006900E89A80E1809381001092800010926E
:103EB00085001092840080E49CE9909387008093B1
:103EC000860081E1809381000E94021A66E070E022
:103ED00081EA93E00E94C91A0E943D246CEA7DE0C9
:103EE0000E9429278C0108511C4F83EC93E00E940B
:103EF00044139801A4E6B0E00E94D22428EE33E0F7
:103F000040E050E00E94B0242093C8033093C903DE
:103F10004093CA035093CB0381E08093CC0363ECBE
:103F200073E08AEF92E00E94571880914D030CEFE6
:103F3000080F855090E004960E942C1AD82EE12C90
:103F40007EE5F72E10E0015011098E2D90E08017CC
:103F5000910734F404960E942C1AF826E394F5CFC6
:103F6000FD1029C084E090E00E942C1A182F85E0F3
:103F700090E00E942C1A082F1123E9F08DEB91E0BC
:103F80000E94330F812F0E94CF0C802F0E94CF0CF4
:103F900080E892E00E94E50F43E061E28DE00E943C
:103FA000E21443E0612F8EE00E94E21443E0602FB0
:103FB0008FE00E94E21488E08093080362E00E9490
:103FC0005A1CE7E6F3E08491E3E5F3E09491923044
:103FD00059F420914802282B209348022091450251
:103FE000282B2093450219C0933059F420914702A1
:103FF000282B2093470220914402282B209344022F
:104000000CC0943051F420914602282B2093460294
:1040100020914302282B20934302EEECF0E0A49180
:104020009230D1F4B0E0AA0FBB1FA95CBD4F28EEBF
:104030003EE02D933C93E5E4F3E0A591B4919C918F
:10404000909336022BE630E030934A0220934902E7
:1040500090916800916037C09330D1F4B0E0AA0F1E
:10406000BB1FA65DBD4F28EE3EE02D933C93E7E4D9
:10407000F3E0A591B4919C91909329022CE630E055
:1040800030934A02209349029091680092601BC0CD
:104090009430D9F4B0E0AA0FBB1FA75EBD4F28EE45
:1040A0003EE02D933C93E9E4F3E0A591B4919C911B
:1040B000909318022DE630E030934A022093490293
:1040C00090916800946090936800A0914902B0912B
:1040D0004A02EC918E2B8C931E861D861C86BE0197
:1040E000645F7F4F80914F03909150030E94E319CA
:1040F00087EE90E00E94E50FCE010C960E94E00C46
:1041000060914F03709150036D5F7F4F4AE050E024
:10411000CE0101960E944D241B868CED90E00E94FA
:10412000E50FCE0101960E94330F8AED90E00E94C8
:10413000E50F88E193E00E945C0811E08091510353
:10414000811740F080915403909155030E94F7131A
:104150001F5FF4CF11E00EE0F12C0E942F13882393
:1041600019F0FF24F394F9CFF11007C00E942F1328
:10417000882329F0FF24F394F9CFFF24F39480914E
:104180001A0390911B03FC0126A5222309F40AC2FD
:1041900063E273E082960E942D158A3008F402C211
:1041A0001B821A821982BE016F5F7F4F80914F037D
:1041B000909150030E94E319BE016F5F7F4F87E229
:1041C00093E00E94D3088111EDC163E273E088E1BE
:1041D00093E00E949402BB24B39490E1A92E22E2C2
:1041E000922E36E0832E909151039B15F0F1C090F2
:1041F0005403D0905503F601938590FF34C0E090AE
:104200001E03E394E0921E0360911C0370911D0352
:10421000CE0101960E94BF0FE0911A03F0911B039B
:1042200083A1F601948500932303A0922603909224
:10423000250380922D03E092240390932E03109285
:104240002F031092300380933103AE014F5F5F4F15
:1042500063E273E088E193E00E94BF10F60183857A
:104260008E7F838781E0B394BECFF11098C1811116
:1042700096C18091C00381118AC18CE492E00E94B2
:10428000A5168091C00085FD06C08091C0008064A5
:104290008093C000F6CF8091C00086FFFCCF809154
:1042A0006F008E7F80936F008AEF92E00E94FB0B7D
:1042B000009741F0FC01329729F0C580D680E78055
:1042C000F08403C0C12CD12C76018CEF92E00E94C7
:1042D000FB0B892B09F058C1F1E0CF16D104E104A2
:1042E000F10409F4ECC08091CF03811116C0BB2406
:1042F000BA9486E30E949B19BA94807731F0FAE170
:10430000FA95F1F700C0B110F4CF8AE30E949B192F
:1043100089E30E949B191093CF0381E2C81683E0C2
:10432000D806E104F10408F047C091E9C91691E00C
:10433000D906E104F10408F048C0E9ECCE16D10436
:10434000E104F10408F04AC0F5E6CF16D104E10417
:10435000F10408F04BC083E3C816D104E104F10472
:1043600008F04CC09AE1C916D104E104F10408F048
:104370004DC0EDE0CE16D104E104F10408F04EC0CA
:10438000F7E0CF16D104E104F10408F04FC084E057
:10439000C816D104E104F10408F050C092E0C91637
:1043A000D104E104F10408F451C060E070E0C12CD4
:1043B000D12C7601C3944FC069E070E0A0E2CA2E10
:1043C000A3E0DA2EE12CF12C46C068E070E0F0E9C1
:1043D000CF2EDD24D394E12CF12C3DC067E070E0BA
:1043E000E8ECCE2ED12CE12CF12C35C066E070E04B
:1043F00054E6C52ED12CE12CF12C2DC065E070E0E7
:1044000042E3C42ED12CE12CF12C25C064E070E0F5
:1044100039E1C32ED12CE12CF12C1DC063E070E0FA
:104420002CE0C22ED12CE12CF12C15C062E070E002
:1044300096E0C92ED12CE12CF12C0DC061E070E08A
:1044400083E0C82ED12CE12CF12C05C06AE070E08D
:10445000C12CD12C760120E030E040E050E08BE42C
:1044600092E00E94D317E1E0CE1AD108E108F108EA
:104470008AEF92E00E94FB0B0097E1F0FC0132977B
:10448000C9F085819681A781B085AC01BD014150FD
:10449000510961097109C416D506E606F70610F43C
:1044A000B701A601841B950BA60BB70B85839683DA
:1044B000A783B0878AEF92E00E94E21865C00E944D
:1044C000021A8091B10081FF02C084E001C080E047
:1044D0009091B10090FD82609091B1009091B100F7
:1044E0009B7F9093B1009091B1009D7F9093B1001C
:1044F0009091B1009E7F9093B10090916400906480
:104500009093640090917A009F7790937A009091B5
:104510006400916090936400909164009062909325
:1045200064009091640090689093640093B7917FC9
:1045300093BFF89493B7916093BF7894889593B79D
:104540009E7F93BF7894909164009E7F90936400C7
:1045500090917A00906890937A0081FF05C08091D5
:10456000B10084608093B100809164008F7B809360
:104570006400809164008F7D80936400809164006A
:104580008F77809364000BC00E94021A08C080914C
:10459000CF03882321F00E94B3191092CF030E9409
:1045A000C716DACD80E017CEFF920F931F93CF93FB
:1045B000DF93ECE4F2E01382128288EE93E0A0E055
:1045C000B0E084839583A683B78382E191E09183F1
:1045D000808385EC90E09587848784EC90E09787D2
:1045E000868780EC90E0918B808B81EC90E0938BC0
:1045F000828B82EC90E0958B848B86EC90E0978B9D
:10460000868B118E128E138E148E1092F002E2EFB2
:10461000F2E0128211821082EAEFF2E0118210823F
:1046200013821282E5EFF2E011821082138212826D
:104630001482EFE9F3E01582148217821086118646
:10464000128684E891E093838283138A148A158A00
:10465000168A11E01683138E128E158E168E178E03
:1046600010A28AE791E0918F808F11A2148F13A27C
:1046700017A216A211A612A613A614A680E791E00F
:1046800095A384A315A610A716A617A610AA80EDB9
:1046900093E00E94B608C8E1D3E080E491E09983FA
:1046A00088831B821A8282E593E09D838C831E821D
:1046B000198618861F821A8683E293E00E94B60844
:1046C00080E290E09EAB8DAB23E133E038AF2FABBF
:1046D00019AF9BAF8AAFFF24FA94FEAE1092580335
:1046E000109257031092590310925B0310925A03D1
:1046F00010925D0310925C0388E591E099838883B2
:104700001092680310926703E9E6F3E080818E7FE0
:104710008D7F808310926A0310926C0310926B035A
:10472000109261031092600310926203109263036F
:104730001092640310926503109266030EE513E075
:1047400086E391E0F801918380838DE693E00E94F7
:10475000B608109297031092980310929903109242
:104760009A0310929B03F0929E031DAF0CAF84E658
:1047700091E099838883EEEFF2E013821282148233
:104780001582168217821086A7E0B3E08C91887F8D
:10479000816088608C931286108A1786118A128A2B
:1047A000138A148A158A84E291E096878587F78BAD
:1047B000E68B84E991E091838083D18FC08F8CE276
:1047C00091E094878387DF91CF911F910F91FF90A4
:1047D00008958EEF92E00E943B0888E193E00C94EC
:1047E0006B088F929F92AF92BF92CF92DF92EF921F
:1047F000FF92CF93DF93EC01688179818A819B815D
:10480000611571058105910521F464E279ED8BE56F
:1048100097E02DE133EF41E050E00E947E24490112
:104820005A019B01AC01A7EAB1E40E949D246B01EF
:104830007C01ACEEB4EFA50194010E94AB24DC0135
:10484000CB018C0D9D1DAE1DBF1DB7FF03C0019791
:10485000A109B04888839983AA83BB839F77DF919E
:10486000CF91FF90EF90DF90CF90BF90AF909F904F
:104870008F9008950E94F123089584E091E00E94B2
:10488000F1230895A0E0B0E0809304019093050126
:10489000A0930601B09307010895FB01DC0102C05B
:1048A00005900D9241505040D8F70895DC01CB019E
:1048B000FC01F999FECF06C0F2BDE1BDF89A319630
:1048C00000B40D9241505040B8F70895DC01CB017F
:1048D00003C02D910E94712441505040D0F708959B
:1048E000262FF999FECF1FBA92BD81BD20BD0FB60C
:1048F000F894FA9AF99A0FBE01960895052E97FB3F
:104900001EF400940E94952457FD07D00E94B02405
:1049100007FC03D04EF40C949524509540953095A7
:1049200021953F4F4F4F5F4F08959095809570951B
:1049300061957F4F8F4F9F4F08950E94D224A59F6E
:10494000900DB49F900DA49F800D911D112408958A
:10495000B7FF0C949D240E949D24821B930B089505
:10496000A1E21A2EAA1BBB1BFD010DC0AA1FBB1F73
:10497000EE1FFF1FA217B307E407F50720F0A21BE5
:10498000B30BE40BF50B661F771F881F991F1A9452
:1049900069F760957095809590959B01AC01BD017C
:1049A000CF010895A29FB001B39FC001A39F700DD6
:1049B000811D1124911DB29F700D811D1124911D27
:1049C00008955058BB27AA270E94F9240C946C26FE
:1049D0000E945E2638F00E94652620F039F49F3F41
:1049E00019F426F40C945B260EF4E095E7FB0C9486
:1049F0005526E92F0E947D2658F3BA1762077307E0
:104A00008407950720F079F4A6F50C949F260EF400
:104A1000E0950B2EBA2FA02D0B01B90190010C01CE
:104A2000CA01A0011124FF27591B99F0593F50F4E6
:104A3000503E68F11A16F040A22F232F342F44273E
:104A4000585FF3CF469537952795A795F040539536
:104A5000C9F77EF41F16BA0B620B730B840BBAF006
:104A60009150A1F0FF0FBB1F661F771F881FC2F771
:104A70000EC0BA0F621F731F841F48F48795779585
:104A80006795B795F7959E3F08F0B0CF9395880F3F
:104A900008F09927EE0F9795879508950E94312683
:104AA00008F481E008950E9467250C946C260E940A
:104AB000652658F00E945E2640F029F45F3F29F0F9
:104AC0000C94552651110C94A0260C945B260E9440
:104AD0007D2668F39923B1F3552391F3951B550B6C
:104AE000BB27AA2762177307840738F09F5F5F4FC1
:104AF000220F331F441FAA1FA9F335D00E2E3AF000
:104B0000E0E832D091505040E695001CCAF72BD017
:104B1000FE2F29D0660F771F881FBB1F2617370768
:104B20004807AB07B0E809F0BB0B802DBF01FF279A
:104B300093585F4F3AF09E3F510578F00C945526FC
:104B40000C94A0265F3FE4F3983ED4F386957795C6
:104B50006795B795F7959F5FC9F7880F911D969553
:104B6000879597F90895E1E0660F771F881FBB1FAF
:104B7000621773078407BA0720F0621B730B840B5C
:104B8000BA0BEE1F88F7E09508950E94852688F0FD
:104B90009F5798F0B92F9927B751B0F0E1F0660F01
:104BA000771F881F991F1AF0BA95C9F714C0B13042
:104BB00091F00E949F26B1E008950C949F26672FE4
:104BC000782F8827B85F39F0B93FCCF38695779571
:104BD0006795B395D9F73EF490958095709561955A
:104BE0007F4F8F4F9F4F0895E89409C097FB3EF485
:104BF00090958095709561957F4F8F4F9F4F99232A
:104C0000A9F0F92F96E9BB279395F69587957795A7
:104C10006795B795F111F8CFFAF4BB0F11F460FF67
:104C20001BC06F5F7F4F8F4F9F4F16C0882311F0BF
:104C300096E911C0772321F09EE8872F762F05C0D3
:104C4000662371F096E8862F70E060E02AF09A956E
:104C5000660F771F881FDAF7880F9695879597F963
:104C60000895990F0008550FAA0BE0E8FEEF1616FD
:104C70001706E807F907C0F012161306E407F50750
:104C800098F0621B730B840B950B39F40A2661F0C4
:104C9000232B242B252B21F408950A2609F4A14067
:104CA000A6958FEF811D811D089597F99F6780E874
:104CB00070E060E008959FEF80EC089500240A946E
:104CC0001616170618060906089500240A941216E7
:104CD0001306140605060895092E0394000C11F41A
:104CE000882352F0BB0F40F4BF2B11F460FF04C0C7
:104CF0006F5F7F4F8F4F9F4F089557FD9058440F20
:104D0000551F59F05F3F71F04795880F97FB991F2A
:104D100061F09F3F79F087950895121613061406E7
:104D2000551FF2CF4695F1DF08C016161706180674
:104D3000991FF1CF86957105610508940895E8944F
:104D4000BB2766277727CB0197F908950E94312664
:104D500008F48FEF08950E94BE260C946C260E94E2
:104D60005E2638F00E94652620F0952311F00C9401
:104D700055260C945B2611240C94A0260E947D26B7
:104D800070F3959FC1F3950F50E0551F629FF0019E
:104D9000729FBB27F00DB11D639FAA27F00DB11DB7
:104DA000AA1F649F6627B00DA11D661F829F222740
:104DB000B00DA11D621F739FB00DA11D621F839FC7
:104DC000A00D611D221F749F3327A00D611D231F9D
:104DD000849F600D211D822F762F6A2F11249F57EB
:104DE00050409AF0F1F088234AF0EE0FFF1FBB1FEE
:104DF000661F771F881F91505040A9F79E3F5105AD
:104E000080F00C9455260C94A0265F3FE4F3983E66
:104E1000D4F3869577956795B795F795E7959F5F56
:104E2000C1F7FE2B880F911D9695879597F90895E8
:104E30000E943126880B990B0895991B79E004C0D4
:104E4000991F961708F0961B881F7A95C9F78095C9
:104E5000089597FB072E16F4009407D077FD09D02C
:104E60000E943D2707FC05D03EF4909581959F4F09
:104E70000895709561957F4F0895AA1BBB1B51E162
:104E800007C0AA1FBB1FA617B70710F0A61BB70BBA
:104E9000881F991F5A95A9F780959095BC01CD015F
:104EA0000895EE0FFF1F0590F491E02D09940F93E4
:104EB0001F93CF93DF938230910510F482E090E04E
:104EC000E0910604F091070420E030E0A0E0B0E0BB
:104ED000309719F140815181028113814817590798
:104EE000C8F08417950769F4109731F012960C9367
:104EF000129713961C9327C000930604109307047F
:104F000022C02115310519F04217530718F49A01F0
:104F1000BD01EF01DF01F801DBCF21153105F9F00B
:104F2000281B390B2430310580F48A819B8161155F
:104F3000710521F0FB019383828304C090930704E1
:104F400080930604FE01329644C0FE01E20FF31F77
:104F50008193919322503109398328833AC020915B
:104F6000040430910504232B41F420910A0130916F
:104F70000B01309305042093040420910801309123
:104F800009012115310541F42DB73EB740910C01BF
:104F900050910D01241B350BE0910404F0910504A0
:104FA000E217F307A0F42E1B3F0B2817390778F000
:104FB000AC014E5F5F4F2417350748F04E0F5F1F5F
:104FC00050930504409304048193919302C0E0E060
:104FD000F0E0CF01DF91CF911F910F910895CF9312
:104FE000DF93009709F481C0FC013297138212828B
:104FF000A0910604B0910704109781F420813181BB
:10500000820F931F2091040430910504281739075B
:1050100051F5F0930504E093040467C0ED0120E02E
:1050200030E0CE17DF0740F44A815B819E014115D5
:105030005105F1F0EA01F5CFD383C283408151815C
:10504000840F951FC817D90759F488819981840F57
:10505000951F0296918380838A819B8193838283AB
:105060002115310529F4F0930704E09306043DC0AF
:10507000E901FB83EA8349915991C40FD51FEC17CD
:10508000FD0761F480819181840F951F0296E901EB
:1050900099838883828193819B838A83E0E0F0E017
:1050A00012968D919C911397009719F0FD01DC01E8
:1050B000F7CF8D919C9111979D012E5F3F4F820FED
:1050C000931F20910404309105042817390769F4CF
:1050D000309729F4109207041092060402C013823C
:1050E0001282B0930504A0930404DF91CF91089538
:1050F00081E090E0F8940C949328FB01DC0104C05B
:105100008D910190801921F441505040C8F7881BBF
:10511000990B0895FB01DC0102C001900D924150F2
:105120005040D8F7089511E0C5EED1E004C0FE016B
:105130000E9451272196C63ED107C9F7F894FFCFA8
:10514000C715C7150100000000000804800000001A
:1051500000005E16C815F615A516271605161916B1
:10516000000000008307000000005002350FD80E39
:10517000230200000000E6087C083E080000000052
:10518000320FD60EF215B00E00000000360FDA0E08
:10519000F215940200000000B20EDC0EF21594022B
:1051A000000000006B0872085C0894020000000018
:1051B0001002E30FD40E000000001002B5084008F2
:1051C00000000000EF16E40FE60E00000000D1160C
:1051D0000000000050023B083C08E0074164647294
:1051E0006573732053706163653A2000202D2000A1
:1051F00043432056657273696F6E3A2000436F6EA9
:1052000066696720467265713A2030783231006EE7
:10521000616E00696E66006F7666004572726F722D
:1052200020617420002065787065637465643A209D
:105230000020726561643A20004352432046616950
:105240006C6564005061636B657420746F6F2062DD
:0652500069673A2000002E
:107800000C94343C0C94513C0C94513C0C94513CE1
:107810000C94513C0C94513C0C94513C0C94513CB4
:107820000C94513C0C94513C0C94513C0C94513CA4
:107830000C94513C0C94513C0C94513C0C94513C94
:107840000C94513C0C94513C0C94513C0C94513C84
:107850000C94513C0C94513C0C94513C0C94513C74
:107860000C94513C0C94513C11241FBECFEFD8E036
:10787000DEBFCDBF11E0A0E0B1E0EAE8FFE702C063
:1078800005900D92A230B107D9F712E0A2E0B1E065
:1078900001C01D92AD30B107E1F70E942D3D0C945F
:1078A000C33F0C94003C982F95959595959595958B
:1078B000905D8F708A307CF0282F295A8091C0000B
:1078C00085FFFCCF9093C6008091C00085FFFCCF60
:1078D0002093C6000895282F205DF0CF982F809127
:1078E000C00085FFFCCF9093C6000895EF92FF92F1
:1078F0000F931F93EE24FF2487018091C00087FD22
:1079000017C00894E11CF11C011D111D81E2E8164D
:1079100081EAF80687E0080780E0180770F3E09135
:107920000401F091050109958091C00087FFE9CF1E
:107930008091C6001F910F91FF90EF9008950E94D3
:10794000763C982F8091C00085FFFCCF9093C600B5
:1079500091362CF490330CF09053892F089597555D
:10796000892F08951F930E949F3C182F0E949F3CCF
:107970001295107F810F1F9108951F93182F882350
:1079800021F00E94763C1150E1F71F9108951F935A
:10799000182F0E94763C803249F0809103018F5F5E
:1079A000809303018530C1F01F9108958091C0003C
:1079B00085FFFCCF84E18093C6008091C00085FFE5
:1079C000FCCF1093C6008091C00085FFFCCF80E102
:1079D0008093C6001F910895E0910401F091050184
:1079E00009951F9108950E94763C803241F0809164
:1079F00003018F5F80930301853081F008958091AA
:107A0000C00085FFFCCF84E18093C6008091C00058
:107A100085FFFCCF80E18093C6000895E0910401CA
:107A2000F09105010995089548EC50E08823A1F0F4
:107A30002D9A28EE33E0FA013197F1F721503040CA
:107A4000D1F72D9828EE33E0FA013197F1F7215064
:107A50003040D1F7815061F708953F924F925F9285
:107A60006F927F928F929F92AF92BF92CF92DF924E
:107A7000EF92FF920F931F93CF93DF93000082E06A
:107A80008093C00080E18093C4001092C50088E11B
:107A90008093C10086E08093C2005098589A259A3E
:107AA00081E00E94143D24E1F22E9EE1E92E85E959
:107AB000D82E0FE0C02E10E1B12EAA24A394B1E479
:107AC0009B2EA6E58A2EF2E57F2EE0E26E2E79E46B
:107AD000572E63E5462E50E5352E0E94763C8033C6
:107AE000B1F18133B9F1803409F46FC0813409F404
:107AF00076C0823409F485C0853409F488C08035A5
:107B000031F1823521F1813511F1853509F485C0D6
:107B1000863509F48DC0843609F496C0843709F49B
:107B200003C1853709F472C1863709F466C08091B4
:107B300003018F5F80930301853079F6E0910401A2
:107B4000F091050109950E94763C803351F60E9420
:107B5000F33CC3CF0E94763C803249F78091C0004D
:107B600085FFFCCFF092C6008091C00085FFFCCF5E
:107B70009092C6008091C00085FFFCCF8092C60025
:107B80008091C00085FFFCCF7092C6008091C0003C
:107B900085FFFCCF6092C6008091C00085FFFCCFBE
:107BA0005092C6008091C00085FFFCCF4092C60075
:107BB0008091C00085FFFCCF3092C6008091C0004C
:107BC00085FFFCCFB092C60088CF0E94763C8638F5
:107BD00008F4BDCF0E94763C0E94F33C7ECF0E9409
:107BE000763C803809F49CC0813809F40BC1823896
:107BF00009F430C1883909F48FC080E00E94C73C85
:107C00006CCF84E10E94BD3C0E94F33C66CF85E0CE
:107C10000E94BD3C0E94F33C60CF0E94763C809362
:107C200006010E94763C809307010E94F33C55CFE9
:107C30000E94763C803309F411C183E00E94BD3C70
:107C400080E00E94C73C49CF0E94763C80930902A5
:107C50000E94763C8093080280910C028E7F809374
:107C60000C020E94763C853409F409C18091080217
:107C700090910902892B89F000E010E00E94763C87
:107C8000F801E85FFE4F80830F5F1F4F809108026D
:107C9000909109020817190788F30E94763C8032F8
:107CA00009F045CF80910C0280FFF5C0609106017C
:107CB00070910701660F771F7093070160930601AB
:107CC000A0910802B09109021097C9F0E8E0F1E034
:107CD0009B01AD014E0F5F1FF999FECF32BD21BD53
:107CE000819180BDFA9AF99A2F5F3F4FE417F5070B
:107CF00099F76A0F7B1F70930701609306018091CB
:107D0000C00085FFFCCFF092C6008091C00085FFC7
:107D1000FCCFB092C600E1CE83E00E94C73CDDCE2E
:107D200082E00E94C73CD9CE0E94763C8093090233
:107D30000E94763C80930802809106019091070191
:107D4000880F991F90930701809306010E94763C4B
:107D5000853409F49AC080910C028E7F80930C02C6
:107D60000E94763C803209F0B8CE8091C00085FF39
:107D7000FCCFF092C600A0910802B09109021097C2
:107D8000C1F180910C02082F0170182F1695117007
:107D9000E0910601F0910701AF014F5F5F4FBA011B
:107DA00020E030E00023B1F4112339F49491809164
:107DB000C00085FFFCCF9093C6002F5F3F4FCB01E3
:107DC0000196FA012A173B0780F4BC014F5F5F4F11
:107DD000002351F3F999FECFF2BDE1BDF89A90B5B9
:107DE0008091C00085FFFCCFE6CF709307016093C0
:107DF00006018091C00085FDE5CE8091C00085FF21
:107E0000F8CFE0CE81E00E94C73C67CE0E94763C6E
:107E1000803209F08CCE8091C00085FFFCCFF092BB
:107E2000C6008091C00085FFFCCFE092C600809123
:107E3000C00085FFFCCFD092C6008091C00085FFB6
:107E4000FCCFC092C6008091C00085FFFCCFB092ED
:107E5000C60043CE80E10E94C73C3FCE0E94763CE4
:107E60000E94763C182F0E94763C112309F483C0AF
:107E7000113009F484C08FE00E94C73C2ECE80915F
:107E80000C02816080930C02F1CE80910C02816023
:107E900080930C0265CF809107018823880F880B9F
:107EA0008A2180930B028091060190910701880F2F
:107EB000991F90930701809306018091080280FF2B
:107EC00009C08091080290910902019690930902DD
:107ED00080930802F894F999FECF1127E0910601EA
:107EE000F0910701C8E0D1E0809108029091090269
:107EF000103091F40091570001700130D9F303E084
:107F000000935700E8950091570001700130D9F3B4
:107F100001E100935700E8950990199000915700EE
:107F200001700130D9F301E000935700E8951395F3
:107F3000103498F011270091570001700130D9F3E7
:107F400005E000935700E89500915700017001305B
:107F5000D9F301E100935700E8953296029709F0B2
:107F6000C7CF103011F00296E5CF11248091C000E8
:107F700085FFC5CEC8CE8EE10E94C73CAECD85E957
:0A7F80000E94C73CAACDF894FFCF81
:027F8A00800075
:040000030000780081
:00000001FF
